:020000040800F2
:10000000301B00200D02000815020008F302000852
:10001000190200081B0200081D0200080000000071
:100020000000000000000000000000001F020008A7
:1000300021020008000000007B02000815060008ED
:1000400027020008270200082702000827020008EC
:1000500027020008270200082702000827020008DC
:1000600027020008270200082702000827020008CC
:1000700027020008270200082702000827020008BC
:1000800027020008270200082702000827020008AC
:10009000270200082702000827020008270200089C
:1000A000270200082702000827020008270200088C
:1000B000270200082702000827020008270200087C
:1000C000270200082702000827020008270200086C
:1000D0002702000829070008270200082702000855
:1000E000270200082702000827020008270200084C
:1000F000270200082702000827020008270200083C
:10010000270200082702000827020008270200082B
:10011000270200082702000827020008270200081B
:10012000270200082702000827020008270200080B
:1001300000F002F800F05AF80AA090E8000C82449F
:100140008344AAF10107DA4501D100F04FF8AFF27C
:10015000090EBAE80F0013F0010F18BFFB1A43F0A5
:1001600001031847A4210000C42100000A444FF0F5
:10017000000C10F8013B13F0070408BF10F8014B06
:100180001D1108BF10F8015B641E05D010F8016B4B
:10019000641E01F8016BF9D113F0080F1EBF10F8AF
:1001A000014BAD1C0C1B09D16D1E58BF01F801CBD2
:1001B000FAD505E014F8016B01F8016B6D1EF9D555
:1001C0009142D6D37047000000230024002500266A
:1001D000103A28BF78C1FBD8520728BF30C148BFAA
:1001E0000B6070471FB51FBD10B510BD00F09BF828
:1001F0001146FFF7F7FF00F0D0F800F0B9F803B4AC
:10020000FFF7F2FF03BC00F0C1F800000948804787
:1002100009480047FEE7FEE7FEE7FEE7FEE7FEE7E8
:10022000FEE7FEE7FEE7FEE704480549054A064B00
:1002300070470000C9060008310100083015002091
:10024000301B00203017002030170020EFF3108003
:1002500072B6704780F3108870472B4A1368012BE1
:1002600004D04FF001031360284A1060284A11603F
:1002700028484FF0805101607047EFF3108272B64A
:100280002148016891B14FF0000101601F480168E9
:1002900029B1EFF3098121E9F00F006801601C49E1
:1002A00009680968B1E8F00F81F3098882F31088C2
:1002B0004EF0040E70471649086014494FF00000D4
:1002C000086011494FF00100086013484FF47F01A6
:1002D000D0F8002041EA020101600E484FF0805141
:1002E00001600E480068006880F3088861B662B655
:1002F0007047EFF3098000B500F08EFD5DF804EB68
:100300004EF0040E7047000028020020200200205A
:100310002402002004ED00E020ED00E008ED00E004
:10032000704770477047754600F02CF8AE460500E0
:100330006946534620F00700854618B020B5FFF700
:1003400073FFBDE820404FF000064FF000074FF06C
:1003500000084FF0000B21F00701AC46ACE8C009E3
:10036000ACE8C009ACE8C009ACE8C0098D467047EC
:1003700010B50446AFF300802046BDE81040FFF7FB
:100380003EBF000000487047D014002001491820EB
:10039000ABBEFEE726000200704710B5FFF756FF20
:1003A00001F0B6FC002010BD5A48806940F00400FE
:1003B000584988610846806940F0010088615648C4
:1003C000006820F4702054490860084600680860FE
:1003D0005048406940F002004E4948614F4800686B
:1003E0004E4908600846006840F40050086008461E
:1003F000006840F4006008600846006840F400703F
:1004000008600846006840F0800008600846006800
:1004100008600846006840F0200008600846006850
:1004200040F010000860081D00680020091D0860E9
:100430000846006840F03F000860081D0068384921
:100440000843364908310860081D006835490843EB
:1004500032490C3108603148006840F001002F49F2
:1004600008602C48C06940F010002A49C8612E4835
:10047000008840F080002C490880084600880880E9
:100480000846008840F0040008800846808840F054
:10049000200088800846808940F480708881084662
:1004A000008D002008850846808D0020888508463C
:1004B000008D40F0010008850846808D40F47A6088
:1004C00088850846008840F0010008801148C0690E
:1004D00040F000500F49C86111480838006840F4E6
:1004E00080500F49083908600846006808600846CF
:1004F000006808600846006840F00400086008468C
:10050000006840F0020008600846006840F0010002
:1005100008607047001002400008014030040240AB
:10052000087400400C0000200010004010B500F0DE
:1005300001F810BD0CB50020019000903348006810
:1005400040F480303149086000BF3048006800F452
:10055000003000900198401C0190009818B9019853
:10056000B0F5A06FF1D12948006800F4003010B157
:100570000120009001E0002000900098012843D164
:100580002348006840F010002149086008460068D0
:1005900020F0030008600846006840F00200086090
:1005A0001A4840681949486008464068486008464B
:1005B000406840F4806048600846406820F47C1041
:1005C00048600846406840F4E81048600846006803
:1005D00040F08070086000BF0C48006800F00070B8
:1005E0000028F9D00948406820F003000749486016
:1005F0000846406840F00200486000BF0348406879
:1006000000F00C000828F9D10CBD000000100240D9
:100610000020024010B500F037FC01F023FA00F092
:100620004DFC10BD10B5002100200022214B5B685D
:1006300003F00C0121B1042906D0082928D107E0D4
:100640001D4B1E4C236027E01B4B1C4C236023E0FA
:10065000184B5B6803F47010164B5B6803F4803230
:10066000022303EB904022B9154B4343134C236004
:100670000DE0104B5B6803F4003323B1104B434390
:100680000E4C236003E00C4B43430C4C236003E00F
:10069000094B0A4C236000BF00BF064B5B68C3F3E5
:1006A0000313084CE15C054B1B68CB40034C2360F3
:1006B00010BD00000010024000127A000C01002062
:1006C00000093D001001002010B51348006840F0FB
:1006D00001001149086008464068104908400E4969
:1006E0004860084600680E4908400B490860084603
:1006F000006820F4802008600846406820F4FE006E
:1007000048604FF41F008860FFF710FF4FF0006053
:100710000449086010BD0000001002400000FFF80E
:10072000FFFFF6FE08ED00E00AE00D480088C1B2C8
:100730000C4802780078401C0A4B18700A48815413
:100740000748001F008800F020002028EDD0054851
:100750000078042802D10020024908707047000088
:100760000438014009000020050000202DE9F04771
:100770004F48806944F2040108434D4988610846A6
:10078000C06840F48040C8600846C06820F48040DB
:10079000C8604848006820F47F6046490860084601
:1007A000006840F40B6008604348008840F4005043
:1007B000414908800846008840F004000880084647
:1007C000008840F0200008800846008840F00800BB
:1007D00008804FF4EA74204601F0A0FB0646374932
:1007E00001F0FAFB0546284601F078FB000140EADB
:1007F00004103149091F088001200246304B196856
:100800004FF6FF0319402F4B0B4343EA02212C4BB9
:10081000196000BF25200122022617461346C3F1A6
:100820000709B9F1040F02D94FF0040901E0C3F13F
:100830000709C84603F10409B9F1070F02D24FF0C6
:10084000000901E0A3F10309CC464FF0010909FAC0
:1008500008F9A9F1010909EA060909FA0CF94FF0AA
:10086000010A0AFA0CFAAAF1010A0AEA070A49EA95
:100870000A0100BF002808DA0A07160E104A0C32D7
:1008800000F00F031B1FD65403E00A07130E0E4A95
:10089000135400BF252000F01F020121914042099E
:1008A000920002F1E022C2F8001100BFBDE8F0871B
:1008B00000100240040801400C3801400000EA43E7
:1008C0000CED00E00000FA0500E400E00146481EDF
:1008D000B0F1807F01D301207047481E4FF0E02225
:1008E0005061FF20044A107000204FF0E022906118
:1008F000072010610020EFE723ED00E0014609B971
:1009000000207047C8B220B1C8B20E4A105C401C2B
:10091000F7E701F47F4028B10A48C1F30722805C61
:100920000930EEE701F47F0028B10648C1F3074221
:10093000805C1130E5E7034800EB11600078193066
:10094000DFE70000D421000803490868884201D08D
:10095000012070470020FCE7F80100202DE9FC5F32
:1009600004468B4615461E46DDE90C9ADDE90E78F5
:1009700004F114004060006000BF1C346560A66094
:10098000C4F80C90C4F810A02321D4E9030200F0AD
:1009900003FCD4E9033C63441A1F144BD4E901015E
:1009A00000F04CFA2060A77667760020E061C4F87A
:1009B0002880C4F82C8060612076E06520661C3CAD
:1009C000009023460A4A2146019004F14C0001F0B0
:1009D000D5F800BF0748006818B1204605490968E6
:1009E000884700BF0020BDE8FC9F000049170008B1
:1009F000D51900080C0200202DE9F04704460E46E8
:100A000017469846DDF8209084F80990607A20F027
:100A100001006072E66127620020A062C4F82480B1
:100A2000002506E004F1140101EBC50000F0AEFA68
:100A30006D1C012DF6DBBDE8F08710B502460020E5
:100A400001460EE002F1140303EBC100D0E90043BC
:100A50006360D0E9003423604060006000BF481C40
:100A600001460129EEDB10BD1648806940F04800C0
:100A7000144988611448006820F470001249086025
:100A80000846006840F4401008600F4810300068C5
:100A900040F020000C49103108600C48006820F438
:100AA00070000A4908600846006840F44010086079
:100AB00006481030006840F02000044910310860FA
:100AC0007047000000100240000C01400018014077
:100AD0001CB5FFF7C9FFFFF749FEFFF765FC394872
:100AE000006840F02000374908603748006840F04F
:100AF00020003549086000203449087009E03020A2
:100B00003349324A1278885430480078401C2F49C3
:100B100008702E4800780428F1DB05200A21C8233C
:100B20000022CDE900102B492BA000F0DEFD054688
:100B300005200A21C8230022CDE90010284929A058
:100B400000F0D3FD0446284600F000FF204600F0E8
:100B5000FDFE36E0254800F0F0FD00201B4908703E
:100B600011E023481949097850F821000A21B0FB07
:100B7000F1F02049154A127841F822001348007814
:100B8000401C12490870114800783F28E9DB1748DB
:100B900000F0D3FD00200D4908700EE014480B4909
:100BA000097850F821001349084A127841F82200C8
:100BB00006480078401C05490870044800783F2822
:100BC000ECDBC7E7140C01401418014004000020BE
:100BD00005000020D51D0008746573743200000004
:100BE0003D1D00087465737431000000404B4C00DB
:100BF000D82000080C00002010B5044600F066F86C
:100C0000FFF766FF10BD000030B51A4C436824683A
:100C10001919884215D04B889BB9174B1B6899420C
:100C20000FD0164B1B688B4201D1144B18604B68D8
:100C30004360104B1B68C31A0E4D4C682D682C4442
:100C4000A3600C4C836824681A19824211D053881F
:100C50007BB90A4B1B68834201D1084B1A60436879
:100C60005360044B1B68D31A024D44682D682C4412
:100C7000A36030BD3C010020400100204401002061
:100C80001CB514200A214FF400630022CDE90010A6
:100C9000044905A000F029FD0446204600F056FE58
:100CA0001CBD0000F90B00086D61696E00000000BA
:100CB00010B5044C02E020688047241D024884429D
:100CC000F9D310BDFC2200080023000810B5044C25
:100CD00002E020688047241D02488442F9D310BDF9
:100CE000002300080423000810B5FFF7AFFA0446FC
:100CF00004480088401C00B2024908802046FFF7E3
:100D0000A9FA10BDE801002010B5FFF79FFA0446CC
:100D10000B480088401E00B2094908800846B0F917
:100D20000000002807DC002008802046FFF792FA28
:100D300000F0E8FA02E02046FFF78CFA10BD000050
:100D4000E801002070B5054605B970BD00BF1A481E
:100D5000006818B1284618490968884700BF174835
:100D60000068854203D316480068854200D3ECE74B
:100D7000A5F10C044FF0FF31124800F0A5FB002054
:100D800060804FF4F55020800F480068844201D203
:100D90000D480460094960680968611A401A0B49E6
:100DA0000968081A094908602046FFF72DFF054821
:100DB00000F062FB00BFC8E7380100203C010020C2
:100DC00040010020B0030020440100204C0100201D
:100DD00000487047D004002000487047D01400201D
:100DE00070B5FFF71FFC0A4800680A49B0FBF1F430
:100DF0002046FFF76BFDFFF75BFFFFF7EDFF0446B3
:100E0000FFF7E6FF0546214600F0CAFB70BD000073
:100E10000C010020A086010070B504460648006859
:100E200038B12046044909688847054605B970BDB0
:100E300000BF00BFFEE700002C020020F0B5044612
:100E40000D461646301D20F00700403801460022AE
:100E500003E00C4F41F82270521C102AF9D30D62A6
:100E60004FF0000CC1F824C0C1F828C0C1F82CC054
:100E7000C1F830C04B638C634FF0807CC1F83CC03C
:100E8000F0BD0000EFBEADDE10B5FFF7DFF90446A0
:100E900008480078401C0749087000BF06480068F1
:100EA00010B105480068804700BF2046FFF7D2F91F
:100EB00010BD00002C0100202401002010B5FFF718
:100EC000C5F9044608480078401E0749087000BF6D
:100ED0000648006810B105480068804700BF2046FA
:100EE000FFF7B8F910BD00002C01002028010020F8
:100EF00070B504462068A0F11405284600F0D4FC23
:100F0000002070BD2DE9F04105460C469046204674
:100F100000F032FDB8F1000F03D0B8F1010F23D17A
:100F200005E004F11401284600F048F81CE02E68A2
:100F30000FE0A6F1140794F8350097F835108842B1
:100F400006DA04F1140107F1140000F037F802E0AA
:100F50003668AE42EDD100BFAE4204D104F11401B7
:100F6000284600F02BF800BF00BF0020BDE8F0814C
:100F700010B5044604F1140000F002F8002010BD82
:100F800040600060704740600060704740600060F3
:100F900070470268516002680A60016048607047EB
:100FA0000268516002680A60016048607047026828
:100FB000516002680A6001604860704742681160D1
:100FC00042684A604160086070470146086888428C
:100FD00001D1012070470020FCE7014608688842E3
:100FE00001D1012070470020FCE7D0E900215160C9
:100FF000D0E900121160406000607047D0E9002124
:101000005160D0E90012116040600060704700003C
:101010002DE9F041054615B90020BDE8F081E81C36
:1010200020F0030554480068854201D90020F4E708
:101030000C2D00D20C254FF0FF31504800F044FA3F
:101040004F4800684F490968461A8AE04D480068D1
:101050008419608800287CD106F10C006168081AA8
:10106000A8427AD306F10C006168091A05F118004C
:10107000814230D306F10C0000EB050841480068BE
:1010800000EB08074FF4F550388000207880606846
:101090007860BE60C4F804800120608036487968BA
:1010A00000680C30814205D03649786809680844E8
:1010B000C0F808803448016805F10C000844324942
:1010C0000860324800680968884219D22E480068D2
:1010D0002E49086014E0012060802A496068096890
:1010E000611A401A284909680844274908602748B6
:1010F00000680968884203D22348006823490860D1
:101100004FF4F55020801E480068844212D107E059
:101110001B48006840681B49096808441849086072
:1011200017480068408828B11548006818490968C0
:101130008842EDD1114800F09FF900BF15480068C2
:1011400028B1294604F10C00124A1268904700BFEA
:1011500000E002E004F10C005FE70A480068304458
:10116000466805480068401BB0423FF66FAF034831
:1011700000F082F9002050E748010020B003002071
:10118000440100203C0100204C01002050010020BF
:10119000400100203401002030B5034601E003F88F
:1011A000011B141EA2F10102F9D130BD2DE9F0415D
:1011B00005460F46284600F05DF80646F068FFF742
:1011C00027FF044614B90020BDE8F08125720020F5
:1011D000607208223946204600F0C7F900BF0A486D
:1011E000006818B1204608490968884700BFFFF722
:1011F0002DF8804604F10C01301DFFF7CAFE404671
:10120000FFF728F82046DFE7D401002070B5044638
:1012100000BF0B48006818B1204609490968884793
:1012200000BFFFF713F8054604F10C00FFF7DDFEE1
:101230002846FFF70FF82046FFF784FD70BD000039
:10124000D801002070B5044600BF0948006818B1F5
:10125000204607490968884700BFFEF7F7FF0546A3
:1012600004F10C00FFF7C1FE2846FEF7F3FF70BD46
:10127000D8010020024600210AE0074800EB0110D7
:101280000078904203D1044800EB01107047491CDC
:101290000829F2DB0020F9E7540100202DE9F04194
:1012A00004460D4616462846FFF7E4FF074645F07C
:1012B0008000207208223146204600F056F900BF17
:1012C0000A48006818B1204608490968884700BFE5
:1012D000FEF7BCFF804604F10C01381DFFF759FEF4
:1012E0004046FEF7B7FFBDE8F0810000D4010020C2
:1012F0000146087A00F0800008B101207047002004
:10130000FCE700002DE9F041FEF7A0FF074620486A
:101310000088002837D11F480068FFF7EFFA461E03
:101320001D4850F83600A0F114041C48006884429F
:1013300025D01B490E7019480568046000BF194884
:10134000006820B121462846164A1268904700BF1F
:101350001548007848B904F11C0105F11C00FEF79E
:101360007CFF3846FEF776FF0CE004F11C0105F126
:101370001C00FEF772FF3846FEF76CFF02E03846AD
:10138000FEF768FF02E03846FEF764FFBDE8F08133
:10139000E8010020F4010020D0030020EC0100202F
:1013A000F0010020000200202C01002070B504464E
:1013B000FEF74CFF054614F8340F20F00F0040F004
:1013C000010020706278343C0A4B03EBC20004F148
:1013D00014014268116042684A604160086000BFC1
:1013E0000549A06B09680843034908602846FEF7D1
:1013F00031FF70BDD0030020F401002070B5044619
:10140000FEF724FF054604F11400D0E900215160E5
:10141000D0E9001211604060006000BF94F8351000
:10142000094A02EBC1000168814201D1012100E0BB
:10143000002129B10548A16B006888430349086071
:101440002846FEF707FF70BDD0030020F4010020FE
:101450002DE9F04104460D4616461F462A46012155
:101460002046FFF71BFF2046FFF782FDA683677229
:101470000020BDE8F081000070B5044600BF1148AF
:10148000006818B120460F490968884700BF002549
:10149000FEF7DCFE064604F11400FFF796FD28B9BE
:1014A00004F11400FFF724FD012502E0A08B401C8D
:1014B000A0833046FEF7CEFE012D01D1FFF722FFBB
:1014C000002070BDE401002073B5054600BF24482C
:1014D000006818B1284622490968884700BFFEF70E
:1014E000B5FE0646A88B002806DDA88B401EA88303
:1014F0003046FEF7AFFE28E0019828B93046FEF7E7
:10150000A9FE6FF001007CBD00F0F8F90446002050
:1015100020636A7A214605F11400FFF7F3FC019875
:10152000002809DD01AA002104F14C0000F0FAFABC
:1015300004F14C0000F03AFB3046FEF78BFEFFF75B
:10154000E1FE206B08B1206BDDE700BF05480068B5
:1015500018B1284603490968884700BF0020D2E730
:10156000DC010020E0010020704770B50346A2B105
:1015700018460C4600BF14F8016B00F8016B3EB929
:1015800002E0002500F8015B551E2A1EF9D102E099
:10159000551E2A1EEFD100BF00BF184670BD0000C7
:1015A0002DE9F04107468846F81C20F0030528F095
:1015B0000306182E08D9A6F11800A84204D3701B00
:1015C00018381C49086001E0BDE8F0811A48056040
:1015D00004684FF4F5502080164800680C306060B5
:1015E0000020A060608014496068096808441349BD
:1015F00008604FF4F5500968088001200F49096818
:1016000048800C4800680C300C490968486009485B
:1016100000680C300949096888600023012208A18C
:101620000948FFF715FF044800680849086000BF33
:10163000CAE70000480100203C01002040010020D2
:101640006865617000000000B003002044010020C4
:1016500010B500200B490880002405E00A4901EB81
:10166000C400FFF790FC641C202CF7DB1F20074907
:101670000870002006490860064908600648FFF720
:1016800082FC10BDE8010020D0030020F001002002
:10169000EC010020F4010020F801002070B508489A
:1016A0000068FFF72BF9451E064850F83500A0F1F9
:1016B00014040548046004F11C00FEF7FCFD70BD35
:1016C000F4010020D0030020EC01002010B500241C
:1016D00005E0044901EBC400FFF758FC641C002C32
:1016E000F7D010BD1002002070472DE9FF5F0646BD
:1016F0000F4690461D46DDE90EAB31460020FFF750
:1017000055FD8146B9F1000F03D1002004B0BDE8BA
:10171000F09F2846FFF77CFC044624B94846FFF7B3
:1017200075FD0020F2E743463A46314648468DE8CB
:10173000300CFFF713F94846E8E710B50446204699
:1017400000F0E2F810BD000070B512480468FEF722
:101750007DFD05462046FFF751FE042084F8340045
:1017600004F14C0000F0FAF92046FFF7C1FD012812
:1017700005D1A06F18B92046FFF764FD04E004F11D
:1017800014010548FFF70CFC2846FEF763FDFFF740
:10179000B9FD70BDEC010020F801002007E004480D
:1017A000006810B102480068804700F003F8F6E7CF
:1017B0002001002070B537E0FEF748FD0546FFF731
:1017C000C3F818B31B480068A0F1140404F1140016
:1017D000D0E900215160D0E9001211604060006042
:1017E00000BFFFF781FAA06F10B12046A16F8847B4
:1017F0002046FFF77DFD012805D1FFF785FA284631
:10180000FEF728FD70BDFFF77FFA03E02846FEF7DC
:1018100021FDF7E72846FEF71DFDA06AFFF792FAC3
:101820002046FFF7F3FC00BFFFF78EF80028C3D176
:1018300000BFE7E7F80100201FB520201F21C200EC
:10184000074BCDE90032CDE902100023054A06A17D
:10185000074800F00FF8064800F078F81FBD0000B8
:10186000B00200209D1700087469646C65000000D8
:10187000300200202DE9FF5F05460C4616461F4644
:10188000DDE910ABDDE90E89224600212846FFF78D
:1018900005FD3B463246214628468DE8000FFFF7FE
:1018A0005DF804B0BDE8F09F70B5044694F83400CC
:1018B00000F00F00022802D04FF0FF3070BDFEF79D
:1018C000C5FC054604F11400FFF798FB04F14C0039
:1018D00000F0F2F92846FEF7BDFC2046FFF766FD52
:1018E00000BF0548006818B12046034909688847C9
:1018F00000BF0020E2E70000080200200148006865
:1019000070470000EC01002031B5FEF79FFC054652
:101910000D480468204600F02FF86A46002104F1C3
:101920004C0000F0FFF804F14C0000F03FF92846AD
:10193000FEF790FCFFF7E6FC206B801C08B9002046
:101940002063002038BD0000EC01002010B50446E3
:101950003434A07860706178012088406060022093
:1019600004F834092046FFF79FFFFFF7C7FF08B1CF
:10197000FFF7C8FC002010BD70B5044694F8340091
:1019800000F00F00012802D04FF0FF3070BDFEF7CD
:101990005DFC054694F8340020F00F0040F0020092
:1019A00084F834002046FFF729FD04F14C0000F0D4
:1019B00083F92846FEF74EFC00BF0548006818B1C1
:1019C000204603490968884700BF0020DEE7000081
:1019D0000402002070B5044625466FF0010028631C
:1019E00005F11400FFF70AFB2846FFF7DFFCFFF7BD
:1019F00089FC70BD70B5FEF729FC054614480468E3
:101A000094F8340000F00F0001281CD1D4E905102F
:101A1000814218D004F11400FFF7F0FA94F8352051
:101A20000C4B03EBC20004F11401426811604268E0
:101A30004A604160086000BF2846FEF70BFCFFF7D4
:101A400061FC002070BD2846FEF704FC0020F9E789
:101A5000EC010020D003002001480068704700001E
:101A60003001002010B50A480068401C0849086091
:101A7000FFF744FF0446A06C401EA064A06C18B998
:101A8000606CA064FFF7B6FF00F004F810BD000022
:101A90003001002070B5FFF7DFFF0546FEF7D6FBEB
:101AA000064631E01D480068A0F11404A06A281A17
:101AB0006FF00041884226D200BF1948006818B173
:101AC000204617490968884700BF2046FEF7B5FF42
:101AD000D4E907108847FFF7BFFF0546607A00F09A
:101AE000020058B1607A00F0010038B1607A20F04D
:101AF00001006072204600F059F805E0607A20F09D
:101B00000100607200E004E00448FFF766FA002874
:101B1000C8D000BF3046FEF79DFB70BD100200200C
:101B200018020020034649B1012904D0022908D037
:101B3000032910D10AE0586A10600CE0106858625E
:101B400009E0587A20F00200587204E0587A40F018
:101B50000200587200BF00BF0020704770B50446F5
:101B6000FEF774FB05462046FEF767FF2846FEF7A2
:101B700071FB2046FFF766FB002070BD2DE9F8439E
:101B800007460C4615461E46DDE90889224609210E
:101B90003846FFF783FB4346324629463846CDF8A0
:101BA0000090FEF729FFBDE8F88300002DE9F84317
:101BB0000546FEF74BFB80462846FEF73EFF687A57
:101BC00020F0010068724046FEF744FB00BF374832
:101BD000006818B1284635490968884700BFFFF7F3
:101BE0003BFF696A0844A862FEF730FB8046304E2E
:101BF000009600242AE019E05DF8242011681422E0
:101C000002EBC402881A826AAB6AD21A00D108E0D9
:101C1000826AAB6AD21A6FF000439A4200D20CE09B
:101C200000BF5DF8240000684DF824005DF8240032
:101C300006EBC40149688842DED100BF2CB15DF8D3
:101C400024000830611C4DF82100641C002CD2D007
:101C500018480068401C174908600846076805F1E5
:101C600014010098FFF7A3F9022412E007F0030023
:101C700060B9C4F1010305F1140202EBC301C4F120
:101C800001025DF82200FFF792F900E003E0BF08CF
:101C9000641C012CEAD900BF687A40F00100687228
:101CA0004046FEF7D7FA0020BDE8F883E0010020A7
:101CB000100200201C02002070B50446607A00F07B
:101CC000010010B94FF0FF3070BD00BF0B48006835
:101CD00018B1204609490968884700BFFEF7B6FADF
:101CE00005462046FEF7A9FE2846FEF7B3FA607ABD
:101CF00020F0010060720020E6E70000E40100200F
:101D00000020704700207047002070470020704777
:101D100010B5FEF79BFAFFF763F8FFF725FCFFF716
:101D2000D5FCFFF795FCFEF7ABFFFFF7DDFCFFF7F7
:101D300083FDFFF7B3FC002010BD000040E0214808
:101D40000068B0F57A6F19D11F48006840F0200094
:101D50001D49086000201B4908601C49087009E003
:101D600030201B49194A1278885418480078401CC2
:101D700016490870154800780428F1DB11480068FE
:101D800041F2883188421BD10F48001D006840F0A5
:101D900020000D49091D086000200A4908600B4910
:101DA000087009E030200A49084A12788854074828
:101DB0000078401C05490870044800780428F1DBCD
:101DC000BDE70000000000201018014004000020C2
:101DD000050000201BE00E48007830384FF47A717F
:101DE00048430B494978303901EBC10202EB01113C
:101DF00000EB810106488078303800EB800001EB71
:101E000040010348C0783038084402490860E2E7DE
:101E1000050000200000002090EA010F48BF81F07B
:101E2000004100F1EA80421A3CBF801A89184FEA4B
:101E3000D0524FF07F4C1CEA410FA2EBD15318BF98
:101E40009CEA026F00F03B804FF0004C4CEA00200F
:101E50004CEA012121FA03FC10EB0C0C1ED202F11A
:101E6000FF325FEA1C2040EBC25038BF70471CF0C5
:101E70007F0F4FEA400C18BFBCF17F4F38BF70474F
:101E8000C3F12003994008BF20F00100BCF17F4F4F
:101E900038BF7047A0F1C04000F099B84FEA3C004D
:101EA000000A40EBC25028BF1CF0FF0F4FEA400C65
:101EB000E6D018BFBCF17F4F38BF7047EAE79CEA15
:101EC000026F05D010EA5C0F08BF00F000407047B9
:101ED00010B500F036F800BF64FBBE3EC10DD1F175
:101EE0009E0206DB4FEA002343F0004323FA02F090
:101EF0007047004207D54FEA4001B1F1FE4F02D2D0
:101F00004FF00000704710B500F01BF84992248094
:101F1000002070476FEA200070470000B0FA80F39D
:101F200010FA03F2C3F19D030AD0D90501EB122088
:101F3000530638BF704700F1010008BF20F00100D0
:101F400070470EF1020E2EF0030E5EF8044B244291
:101F500004D44FEA4102B2F17F4F11D84FEA400357
:101F6000B3F17F4F0CD80ED14FEAD07CB2F17F4F46
:101F70000CEB4C0C0CF1020C08BF4CEBD17C04E0D8
:101F80004FF0080C01E04FEAD17C0CEB4C0324FA33
:101F900003F404F00704B4F1040C06D20EEB840C35
:101FA000BDE810404CF0010C6047DFE80CF007087A
:101FB00002024FF00040A0F5800010BD084642002C
:101FC00018BFD2F1807288BF00F0004010BDFF2121
:101FD00041EAD050C005704780F0004090EA010F00
:101FE0007FF521AF81F0004100F007B890EA010FC2
:101FF00048BF81F000413FF516AF421A04D882F085
:102000000042A0EB020011444FEAD0524FF07F4C47
:102010001CEA410FA2EBD15318BF9CEA026F4AD0D1
:102020004FF0004C4CEA00204CEA012121FA03FC5D
:10203000B0EB0C0C0FD412F0FE0F36D05FEA4C0060
:102040001DD5001240EBC25038BF70471CF03F0F47
:1020500018BF70470BE0A2F101025FEA1C2040EBC1
:10206000C25038BF70471CF07F0F18BF7047C3F1D4
:102070002003994014BF401E20F0010070478008E3
:102080004FEA122308BF7047B0FA80FCA2EB0C02A3
:10209000CCF1280C60FA0CF093EA122F04BF00EB8D
:1020A000C25070474FEAC3707047130A5FEADC10F2
:1020B00008BF7047F6E79CEA026F04D010EA5C0F95
:1020C00008BF0020704710B5FFF73BFF40DFF63E2A
:1020D00081F000407047000000080000CC080000BC
:1020E000970900005D0A00001E0B0000D60B0000DF
:1020F000840C0000270D0000BD0D0000440E000000
:10210000BB0E0000210F0000750F0000B50F00008E
:10211000E20F0000FB0F0000FF0F0000EF0F0000B8
:10212000CA0F0000920F0000460F0000E80E0000EA
:10213000780E0000F70D0000670D0000CA0C0000CB
:10214000200C00006B0B0000AE0A0000EA09000042
:10215000210900005508000088070000BD060000A6
:10216000F50500003205000076040000C3030000FE
:102170001B0300007F020000F20100007401000058
:1021800007010000AC000000630000002E0000000A
:102190000D00000000000000080000002400000006
:1021A0005400000098000000EF00000058010000FB
:1021B000D10100005B020000F30200009803000060
:1021C0004804000002050000C40500008B06000062
:1021D000560700000000010002000100030001009A
:1021E00002000100040001000200010003000100E0
:1021F00002000100050001000200010003000100CF
:1022000002000100040001000200010003000100BF
:1022100002000100060001000200010003000100AD
:10222000020001000400010002000100030001009F
:10223000020001000500010002000100030001008E
:10224000020001000400010002000100030001007F
:10225000020001000700010002000100030001006C
:10226000020001000400010002000100030001005F
:10227000020001000500010002000100030001004E
:10228000020001000400010002000100030001003F
:10229000020001000600010002000100030001002D
:1022A000020001000400010002000100030001001F
:1022B000020001000500010002000100030001000E
:1022C00002000100040001000200010003000100FF
:1022D000020001003031323334353637383961622B
:1022E000636465660030313233343536373839410E
:1022F00042434445460000000D1D0008051D00082E
:10230000011D0008091D0008282300080000002006
:10231000300200006C010008382400083002002060
:1023200000190000C8010008D122081ACC04239724
:1023300009235D0A231E0B1AD60423840C23270DC0
:102340001ABD0423440E1ABB0423210F1A75041A64
:10235000B5041AE2041AFB041AFF041AEF041ACA9D
:10236000041A92041A46041AE82C1A78041AF73C44
:102370001A67041ACA4C1A20041A6B581AAE641A47
:10238000EA6C1A21041A55781B880764220623F583
:10239000051A320423760423C3031A1B04237F0285
:1023A00023F2011A74041A070432AC3263322E1974
:1023B0005769BF1132243254329832EF1A582C1A0E
:1023C000D1041A5B401AF3041A984C1A48581A029E
:1023D000601AC4041A8B701A5678511BA24A1A61EB
:1023E0001808010203040607089A013619782A2002
:1023F000042A804C311A680C290432201987111ADA
:10240000780C290429B01993111A880C2904292061
:1024100029851A980C2904323019A7111AA80C29F9
:1024200004323429AF1AB80C2904323829A51AC845
:082430000C2904025F2C0000DE
:0400000508000131BD
:00000001FF
