:020000040800F2
:1000000038170020450100084D0100084F01000885
:1000100051010008530100085501000800000000CC
:100020000000000000000000000000005701000870
:100030005901000800000000B701000891130008F2
:100040005F0100085F0100085F0100085F01000810
:100050005F0100085F0100085F0100085F01000800
:100060005F0100085F0100085F0100085F010008F0
:100070005F0100085F0100085F0100085F010008E0
:100080005F0100085F0100085F0100085F010008D0
:100090005F0100085F0100085F0100085F010008C0
:1000A0005F0100085F0100085F0100085F010008B0
:1000B0005F0100085F0100085F0100085F010008A0
:1000C0005F0100085F0100085F0100085F01000890
:1000D0005F010008611400085F0100085F0100086B
:1000E0005F0100085F0100085F0100085F01000870
:1000F0005F0100085F0100085F0100085F01000860
:100100005F0100085F0100085F0100085F0100084F
:100110005F0100085F0100085F0100085F0100083F
:100120005F0100085F0100085F0100085F0100082F
:10013000DFF80CD000F01AF90048004781160008DB
:10014000381700200648804706480047FEE7FEE7CC
:10015000FEE7FEE7FEE7FEE7FEE7FEE7FEE7FEE777
:10016000A113000831010008EFF3108072B6704748
:1001700080F310887047204C204D25604FF000041C
:1001800084F309881E4C4FF0010525701D4C4FF07B
:100190008055256062B6FEE730B41A4C4FF08055AA
:1001A000256030BC704730B4164C4FF08055256048
:1001B00030BC704700BF72B6EFF3098028B1203819
:1001C00080E8F00F10490968086000B50F488047C3
:1001D0005DF804EB0E480F490A7802700A480E4990
:1001E0000A680260106890E8F00F203080F30988F8
:1001F0004EF0040E62B6704720ED00E00000FFFFF5
:100200002E00002004ED00E034000020F109000879
:1002100023000020240000203C000020F0B480EAED
:100220000102D40F4200B2EB410F02D2024608464F
:1002300011464A0042D0C30DDDB2C1F3C752AD1A18
:10024000202D35DAC1F3160141F4000204B1524207
:10025000C5F1200602FA06F12A411044B3EBD05F43
:1002600023D0C4B1012DA0EBC35009DCF0BC4FF08A
:10027000004202EAC352DBB200F5000000F048B8C9
:10028000400000F1807000EBC350A0F1807040EAA4
:10029000D170490009E0490841EAC071A0EBC350A0
:1002A00000F50000400800EBC350F0BC00F027B898
:1002B0006142012202EB4101001BF6E7F0BC7047EE
:1002C00081F00041AAE780F00040A7E796230022D2
:1002D000114600F01DB820F00040C10DC0F316001B
:1002E00040F400007F2901DA00207047962903DCE2
:1002F000C1F19601C840704796398840704700297F
:10030000A8BF7047401C490008BF20F0010070479B
:1003100010B4B0FA80FC00FA0CF050EA010404BFFB
:1003200010BC704749B1CCF1200421FA04F411FA51
:100330000CF118BF012121430843A3EB0C01CB1D95
:100340004FEA00614FEA102042BF002010BC704706
:1003500000EBC35010440029A4BF10BC7047401CE0
:10036000490008BF20F0010010BC7047064C074D43
:1003700006E0E06840F0010394E807009847103475
:10038000AC42F6D3FFF7D8FE5818000878180008DA
:1003900010B500F013F800F00BFD00F033FD00F095
:1003A00053FD00F0DBFC00F0ADFC00F0E7FD00F0D9
:1003B0008BFD00F0B1FD00F002F810BD70477047F2
:1003C00006480078012808D105480078FF2804D2A3
:1003D00003480078401C0249087070472E00002036
:1003E0002100002010B500241A480078012830D1DF
:1003F000FFF7BAFE04461848007820B11648007886
:10040000401E1549087014480078F8B91348007860
:10041000E0B900F015FE12481249097850F82100A1
:10042000114908600F4800781049097888420DD0BA
:100430000D480068806B401C0B49096888630C48B4
:100440000068401C0A490860FFF7ADFE2046FFF730
:100450008FFE10BD2E000020210000202200002071
:10046000CC0D0020240000203C00002023000020B0
:100470000800002070B5054600260F48007808B136
:10048000002070BDFFF770FE06460C480468006847
:1004900020B10A4800684068084908603046FFF704
:1004A00067FE3CB10320207025810020606020465B
:1004B00000F01AFC2046E4E7210000200C00002098
:1004C0002DE9F04105460E461446002728780328FA
:1004D00003D001202070BDE8F0813148007810B1D0
:1004E00002202070F7E72F48007810B10D2020700F
:1004F000F1E7FFF739FE0746288940B12889401EF9
:1005000028813846FFF734FE00202070E3E72648B4
:10051000006890F8300040F001002349096881F834
:10052000300000202049096881F831001E48006829
:10053000C662284600F09AFB3846FFF719FE00F025
:1005400045FDFFF711FE07461748006890F8310097
:1005500020B1012809D0022806D102E00020207035
:100560000BE00E20207008E000BF29460E4800680E
:1005700000F066FB0A20207000BF00BF00200A497F
:10058000096881F830000849096881F83100064996
:100590000968C8613846FFF7EBFD00BF9BE7000024
:1005A00021000020220000203400002070B5044605
:1005B00000252078032801D0012070BDFFF7D4FD6D
:1005C0000546A07A60B1002301221946204600F0BA
:1005D000F5FA2846FFF7CCFD00F0F8FC0020ECE728
:1005E00020894FF6FF71884207D22089401C208164
:1005F0002846FFF7BDFD0020DFE72846FFF7B8FDDE
:100600003320DAE710B50B48007890B900F018FDF8
:10061000094800780949087009480749097850F8DD
:100620002100084908600846006807490860FFF78C
:10063000A2FD10BD2E000020240000202300002079
:10064000CC0D00203C00002034000020704700004A
:100650002DE9FE4F06460F4690461C464FF0000916
:10066000FFF782FD81461F48007828B14846FFF712
:100670007FFD3C20BDE8FE8F1B4850F8240060BB86
:100680000120194941F824004846FFF771FD002375
:1006900042463946304600F009F982460020009073
:1006A00001900346024651460290204600F0DEFCCF
:1006B000054635B90D48007801280CD100F086FCBC
:1006C00009E0FFF751FD81460020074941F8240069
:1006D0004846FFF74DFD2846CCE74846FFF748FD62
:1006E0002820C7E721000020CC0D00202E0000208C
:1006F0002DE9F04F85B081468A4693461C46DDE9D8
:100700000F78129D00200390FFF72EFD03902348E1
:10071000007830B10398FFF72BFD3C2005B0BDE811
:10072000F08F1F4850F8240088BB01201C4941F875
:1007300024000398FFF71CFD2A464146384600F086
:10074000A5FD2B465A465146484600F0AFF80490A6
:100750001198CDE9008002953A4620460E9B0499F7
:1007600000F084FC064636B90E48007801280CD10A
:1007700000F02CFC09E0FFF7F7FC0390002008498B
:1007800041F824000398FFF7F3FC3046C6E7FFE783
:100790000398FFF7EDFC2820C0E7000021000020AF
:1007A000CC0D00202E000020704770472DE9F0414D
:1007B00006460F4614464FF000081548007818B159
:1007C00012202070BDE8F081FFF7CEFC8046FF2E9E
:1007D00003D11048006890F832600F4850F8265056
:1007E0002DB94046FFF7C4FC43202070EAE7012DF5
:1007F00005D14046FFF7BCFC43202070E2E7EF64E0
:100800004046FFF7B5FC0020207000BFDAE700008B
:100810002100002034000020CC0D00207047000093
:100820002DE9F04707460D464FF0000A00202860EA
:100830006860FFF799FC8246FF2F03D119480068D2
:1008400090F83270184850F827402CB95046FFF7FE
:100850008FFC4320BDE8F087012C04D15046FFF700
:1008600087FC4320F6E7207C00F0010020B95046C9
:10087000FFF77EFC4520EDE70026D4F80C90D4F875
:1008800008805046FFF774FC00E0761C58F8041B03
:100890000029FAD0B0002860A9EB0600800068604B
:1008A0000020D7E734000020CC0D002070B50446AE
:1008B00010464FF080750560051F28462C606FF0CC
:1008C0000106051F28462E604FF01236051F2846E8
:1008D0002E604FF00336051F28462E604FF002367B
:1008E000051F28462E607610051F28462E60051F1E
:1008F000284629604FF01136051F28462E604FF01C
:100900001036051F28462E604FF00936051F284671
:100910002E604FF00836051F28462E604FF0073630
:10092000051F28462E604FF00636051F28462E600C
:100930004FF00536051F28462E604FF00436051F80
:1009400028462E6070BD00002DE9F04105464FF0AD
:100950000008FFF709FC8046FF2D05D120480068FC
:1009600090F83250012608E01D48006890F83200E7
:10097000A84201D1012600E000261A4850F825407F
:100980002CB94046FFF7F4FB4820BDE8F081012C6C
:1009900004D14046FFF7ECFB4320F6E794F83470AF
:1009A0001148C05D94F8351088430F49C855084672
:1009B000C05D30B994F836100C48007888430B4974
:1009C000087094F8300040F0080084F83000404689
:1009D000FFF7CEFB012E01D100F0F8FA0020D4E79A
:1009E00034000020CC0D002026000020250000202F
:1009F0007047000070B5054600261748007800B122
:100A000070BD1648007800B1FAE71DB3FFF7ACFBE4
:100A100006461348006890F834401248005D1049BB
:100A2000096891F8351088430E4908550846005D5D
:100A300040B90B48006890F836100B48007888439E
:100A40000949087006480068C5623046FFF790FB08
:100A500000F0BCFA00BFD3E72100002022000020F4
:100A60003400002026000020250000202DE9F04160
:100A700004460D4616461F461248007810B1552010
:100A8000BDE8F0811048007808B13220F8E7781D01
:100A9000642148434FF47A71B0FBF1F14FF4616087
:100AA0006043C5EB051200EB8200304400EBC0024E
:100AB00002EB001001EB80084046FFF79BFF00208F
:100AC000DEE70000210000202200002070B5002693
:100AD00000F072F8FFF748FB064631480068401CFA
:100AE0002F4908603046FFF743FB2E480078012865
:100AF00053D12D48007820B1012804D0022809D113
:100B000003E001250BE0002509E00125012026492D
:100B1000087004E0012500202349087000BF00BFD1
:100B200005B970BD2148046833E0FFF71DFB064698
:100B3000E06A50B3E06A401EE062E06A28BB94F8C5
:100B4000300000F0370040B114F8300F00F0C8005A
:100B5000207001206070303C02E0002084F83100F9
:100B600094F8300000F0080078B93434A0781049C7
:100B7000097808430E49087020780E49085C6178AE
:100B8000084314F834190B4A505464693046FFF78F
:100B9000EFFA94F832003F28C7D100BFC1E7000048
:100BA0004C0000202E0000204400002040000020C7
:100BB0002500002026000020704700002DE9F04F9E
:100BC00005460F4690469946A87A19490E5C05F1EC
:100BD0000B00805D11F800B00BEBC60000F0FF0ABF
:100BE000144850F82A4000202034E0602760207C20
:100BF00020EA0800207484F81190207C203C00F04A
:100C0000080068B994F836000B49097808430A4986
:100C100008700A48805D94F83510084307498855E4
:100C20002946204600F00CF85046BDE8F08F000041
:100C300058170008CC0D00202500002026000020B9
:100C400010B590F8342001F10B039B5C90F835400F
:100C5000A34301F10B04A35423469B5C23B98B7A75
:100C600090F83640A3438B7210BD000010B51B4AAC
:100C70001268D061194A126892F8343000F10B0200
:100C8000D25C164B1B6893F835301A43134B1B6824
:100C900093F8344000F10B031A55827A0F4B1B680E
:100CA00093F836301A4382720C4A126892F8341064
:100CB0000B4A525C094B1B6893F835309A43084B3A
:100CC0005A541A46525C42B9044A126892F83630B5
:100CD000044A12789A43034B1A7010BD3400002066
:100CE0002600002025000020014600228A720020F4
:100CF00005E0002301F10B021354421CD0B2082876
:100D0000F7D370472DE9F0415021114800F02CF93C
:100D100000250DE0681C86B20D4800EB051400EBC1
:100D200006170020207067600AA0E060681C85B28A
:100D3000042DEFD3064800EB0514002020706060FE
:100D400004A0E060024804490860BDE8F0810000AA
:100D50007C0900203F0000001000002070B5C82171
:100D6000114800F001F900230FE0581C85B203EB95
:100D700083000D4901EB800405EB850001EB800643
:100D8000002020706660581C83B2092BEDD303EB62
:100D90008300054901EB8004002020706060084654
:100DA0000249086070BD0000B40800200C0000205B
:100DB00000200A4908600A4908700A4908700A496F
:100DC00008700A4908700A4908600A4908600A4917
:100DD00008600A4908600A49087070474C00002002
:100DE00021000020220000202F0000202E000020E3
:100DF00008000020300000201C0000201800002007
:100E00002000002000210A4A1170002004E0002187
:100E1000084A1154411CC8B20828F8D30021064AD8
:100E20001170064A1170064A1160064A1160704737
:100E300025000020260000202300002024000020A0
:100E40003C0000203400002070B54FF47C7119483C
:100E500000F08AF84FF48071174800F085F80024FC
:100E600013E0601CC5B2C4EBC40000EB40001149A4
:100E700001EB8003C5EBC50000EB400001EB8006F1
:100E80005E610EA0D864601CC4B20B2CE9D3C4EB25
:100E9000C40000EB4000074901EB800300205861CB
:100EA00006A0D86400200649086002480549086089
:100EB00070BD0000CC0E0020CC0D00203F000000D3
:100EC000400000203800002000B587B0032000213A
:100ED00080220A4BCDE90132CDE903104FF6FF70B5
:100EE0003F23074A00900748FFF702FC06AA06A125
:100EF0003F20FFF75BFC07B000BD0000CC0B0020DB
:100F0000C80D0020A111000875432F4F532D4949EA
:100F10002049646C6500000000B587B00320002103
:100F200080220A4BCDE90132CDE903104FF6FE7065
:100F30003E23074A00900748FFF7DAFB06AA06A1FE
:100F40003E20FFF733FC07B000BD0000CC090020B5
:100F5000C80B0020C911000875432F4F532D494974
:100F6000205374617400000004E0002200F8012B9B
:100F70004A1E91B20029F8D1704700002DE9F041D6
:100F800078211048FFF7F0FF00240DE0601C86B2C6
:100F900004EB44000B4901EBC00506EB460001EBF6
:100FA000C0072F60601C84B2042CEFD304EB440014
:100FB000044901EBC005002028600846024908608A
:100FC000BDE8F081BC1200204800002010B50024CC
:100FD000FFF7CAF8044613480078F8B912480078B9
:100FE000E0B900F02DF811481149097850F82100B6
:100FF000104908600E4800780F49097888420DD0E2
:101000000C480068806B401C0A49096888630B48DB
:101010000068401C09490860FFF7BEF82046FFF74A
:10102000A7F810BD2100002022000020CC0D0020D8
:10103000240000203C0000202300002008000020A5
:101040000649074A1278885C0649095C034A515CE4
:1010500001EBC001044A11707047000058170008E6
:101060002500002026000020240000202DE9F84F54
:1010700005460F4690469946DDE90AAB00200090F0
:10108000FFF772F800903F480468002C74D01834C1
:1010900054F8040C3B4908600098FFF769F844F8DD
:1010A000187CA576002020766076606144F814BC38
:1010B00044F80CAC44F8108C0C9824F8080C24F874
:1010C000069C0020E077E810207705F00700E07626
:1010D000217F01208840A077E17E01208840607751
:1010E00000206060E060A0602062A0626062E06258
:1010F000206325A06063183C002606E0002104F16F
:10110000500040F82610701CC6B2002EF6D02046C3
:10111000FFF79CFA2046FFF747FBFFF725F8009002
:101120001A4840F825401A48006860610020A06114
:101130001748006810B116480068846114480460BC
:101140003434A0781349097808431249087020788C
:101150001149085C6178084314F834190E4A505458
:101160000E480078401C0D4908700098FFF700F801
:101170000020BDE8F88FFFE70098FEF7F9FF422056
:10118000F7E70000380000203F000000CC0D0020F1
:101190004000002025000020260000202F00002015
:1011A000002400BF00BFFEF7DFFF044605480068CB
:1011B000401C044908602046FEF7DAFFFFF7F5FA05
:1011C000F1E7000030000020002400BF02E01420FE
:1011D000FFF710FC194800780028F8D0184800687C
:1011E0006421B0FBF1F0164908600846006828B990
:1011F000002014490870FF20FFF7A6FB00BFFEF790
:10120000B3FF0446104800681049086000200E49EA
:1012100008602046FEF7ACFF0C48006808490968E2
:10122000B0FBF1F0C0F1640006490870FFF7F6FA70
:1012300000F00EF80A20FFF7DDFBE0E720000020B9
:101240001800002014000020300000201C000020A6
:101250007CB5002514E069462846FFF7E1FA06460A
:1012600066B9094850F8254044B1012C06D0D4E9AC
:10127000020100EB810060640198A064681CC5B2A3
:101280003F2DE8D97CBD0000CC0D002002F0010309
:1012900043B102F002032BB102E0491E002308C053
:1012A0000029FAD1704710B500F002F810BD000017
:1012B0000CB50020019000903348006840F4803065
:1012C0003149086000BF3048006800F400300090E9
:1012D0000198401C0190009818B90198B0F5A06FD2
:1012E000F1D12948006800F4003010B101200090CD
:1012F00001E0002000900098012843D123480068B5
:1013000040F01000214908600846006820F0030002
:1013100008600846006840F0020008601A4840680B
:10132000194948600846406848600846406840F4EB
:10133000806048600846406820F47C104860084699
:10134000406840F4E81048600846006840F080704B
:10135000086000BF0C48006800F000700028F9D059
:101360000948406820F00300074948600846406883
:1013700040F00200486000BF0348406800F00C00E5
:101380000828F9D10CBD00000010024000200240E6
:1013900010B5FFF715F8FFF799FBFFF723F810BD1D
:1013A00010B51348006840F0010011490860084674
:1013B0004068104908400E494860084600680E49D8
:1013C00008400B4908600846006820F48020086047
:1013D0000846406820F4FE0048604FF41F00886013
:1013E000FFF761FF4FF000600449086010BD000086
:1013F000001002400000FFF8FFFFF6FE08ED00E0DD
:1014000030B500BF1349B1F1807F01D301201DE049
:1014100021F07F40401E4FF0E022506150170F2214
:10142000002807DA13071D0E0B4B00F00F04241FD2
:101430001D5503E013071C0E084B1C5400BF002071
:101440004FF0E02290610720106100200028D9D1E0
:1014500030BD000080FC0A0018ED00E000E400E070
:101460000AE011480088C1B2104802780078401C98
:101470000E4B18700E4881540B48001F008800F076
:1014800020002028EDD009480078401E0849085C5B
:101490000A2808D1002105480078401E044A11544A
:1014A0000020024908707047043801400500002000
:1014B0005008002070B52248806944F204010843B6
:1014C0001F4988610846C06840F48040C8600846EB
:1014D000C06820F48040C8601A48006820F47F602B
:1014E000184908600846006840F40B600860164818
:1014F000008840F40050144908800846008840F0F5
:10150000040008800846008840F020000880084653
:10151000008840F00800088027242046FEF7D6FE09
:1015200006460A49FEF7CFFE05462846FEF7D3FEDB
:10153000000140EA04100449091F088070BD000042
:1015400000100240040801400C38014000001C4219
:10155000014608460BE00278074B1A8000BF064A96
:10156000121F128802F04002002AF8D0401C0278B4
:10157000002AF0D1704700000438014002E008C89A
:10158000121F08C1002AFAD170477047002001E0FD
:1015900001C1121F002AFBD17047000024E0134A4A
:1015A000002113480068FEF78BFF12A0FFF7D0FF61
:1015B0000023022219461846FFF758FA124800681D
:1015C00020F4807010490860002302221946184652
:1015D000FFF74CFA0C48006840F480700A49086034
:1015E00003480068FEF7E2FFD9E70000040000208E
:1015F00000000020546869732069732074686520B6
:101600005461736B310D0A000C08014026E0144A46
:10161000002114480068FEF753FF13A0FFF798FF5E
:101620004FF4FA73002211461046FFF71FFA1348D1
:10163000006820F00400114908604FF4FA7300229A
:1016400011461046FFF712FA0C48006840F00400FB
:101650000A49086003480068FEF7A8FFD7E70000C2
:101660000400002000000020546869732069732082
:10167000746865205461736B320D0A000C140140CC
:10168000FFF7BEFEFFF716FF26A0FFF761FF2A480F
:10169000806940F02400284988612848006820F0CB
:1016A0000F00264908600846006840F00300086003
:1016B00022480830006840F48070204908310860F2
:1016C0001F48006820F470601D49086008460068E3
:1016D00040F4407008601A480C30006840F0040084
:1016E00017490C310860FEF753FE0123154A00210B
:1016F0001548FEF7ADFF0223144A00211448FEF7F7
:10170000A7FF0120FEF7B6FE12490860FEF77AFF38
:101710000A480830006840F48070084908310860C1
:1017200000BFFEE754686973206973207468652000
:10173000544553540D0A00000010024004080140B3
:10174000001401404C0400209D1500084C080020A6
:101750000D1600080000002000000100020001003A
:10176000030001000200010004000100020001006A
:101770000300010002000100050001000200010059
:10178000030001000200010004000100020001004A
:101790000300010002000100060001000200010038
:1017A000030001000200010004000100020001002A
:1017B0000300010002000100050001000200010019
:1017C000030001000200010004000100020001000A
:1017D00003000100020001000700010002000100F7
:1017E00003000100020001000400010002000100EA
:1017F00003000100020001000500010002000100D9
:1018000003000100020001000400010002000100C9
:1018100003000100020001000600010002000100B7
:1018200003000100020001000400010002000100A9
:101830000300010002000100050001000200010098
:101840000300010002000100040001000200010089
:1018500003000100020001007818000800000020C9
:10186000500000007C150008C81800085000002037
:10187000E81600008C1500080000000000000000C1
:101880000000000000000000000000000000000058
:101890000000000000000000000000000000000048
:1018A0000000000000000000000000000000000038
:1018B0000000000000000000000000000000000028
:0818C000000000000000000020
:0400000508000131BD
:00000001FF
